{
  "contractName": "ItemManager",
  "abi": [
    {
      "inputs": [],
      "stateMutability": "nonpayable",
      "type": "constructor"
    },
    {
      "anonymous": false,
      "inputs": [
        {
          "indexed": false,
          "internalType": "uint256",
          "name": "_itemIndex",
          "type": "uint256"
        },
        {
          "indexed": false,
          "internalType": "uint256",
          "name": "_Step",
          "type": "uint256"
        },
        {
          "indexed": false,
          "internalType": "address",
          "name": "_itemAddress",
          "type": "address"
        }
      ],
      "name": "SupplyChainStep",
      "type": "event"
    },
    {
      "inputs": [],
      "name": "_owner",
      "outputs": [
        {
          "internalType": "address",
          "name": "",
          "type": "address"
        }
      ],
      "stateMutability": "view",
      "type": "function",
      "constant": true
    },
    {
      "inputs": [
        {
          "internalType": "uint256",
          "name": "",
          "type": "uint256"
        }
      ],
      "name": "items",
      "outputs": [
        {
          "internalType": "contract Item",
          "name": "item",
          "type": "address"
        },
        {
          "internalType": "string",
          "name": "_identifier",
          "type": "string"
        },
        {
          "internalType": "uint256",
          "name": "_ItemPrice",
          "type": "uint256"
        },
        {
          "internalType": "enum ItemManager.SupplyChainState",
          "name": "_state",
          "type": "uint8"
        }
      ],
      "stateMutability": "view",
      "type": "function",
      "constant": true
    },
    {
      "inputs": [],
      "name": "isOwner",
      "outputs": [
        {
          "internalType": "bool",
          "name": "",
          "type": "bool"
        }
      ],
      "stateMutability": "view",
      "type": "function",
      "constant": true
    },
    {
      "inputs": [
        {
          "internalType": "string",
          "name": "_identifier",
          "type": "string"
        },
        {
          "internalType": "uint256",
          "name": "_ItemPrice",
          "type": "uint256"
        }
      ],
      "name": "CreateItem",
      "outputs": [],
      "stateMutability": "nonpayable",
      "type": "function"
    },
    {
      "inputs": [
        {
          "internalType": "uint256",
          "name": "_itemIndex",
          "type": "uint256"
        }
      ],
      "name": "triggerPayment",
      "outputs": [],
      "stateMutability": "payable",
      "type": "function",
      "payable": true
    },
    {
      "inputs": [
        {
          "internalType": "uint256",
          "name": "_itemIndex",
          "type": "uint256"
        }
      ],
      "name": "triggerDeleivery",
      "outputs": [],
      "stateMutability": "nonpayable",
      "type": "function"
    }
  ],
  "bytecode": "0x608060405234801561001057600080fd5b50336000806101000a81548173ffffffffffffffffffffffffffffffffffffffff021916908373ffffffffffffffffffffffffffffffffffffffff160217905550611aed806100606000396000f3fe6080604052600436106200005c5760003560e01c8063800fb83f14620000615780638f32d59b1462000081578063b2bdfa7b14620000b1578063bfb231d214620000e1578063e06c3bff1462000128578063f984ba691462000156575b600080fd5b6200007f600480360381019062000079919062000900565b62000184565b005b3480156200008e57600080fd5b506200009962000363565b604051620000a891906200094f565b60405180910390f35b348015620000be57600080fd5b50620000c9620003ba565b604051620000d89190620009b1565b60405180910390f35b348015620000ee57600080fd5b506200010d600480360381019062000107919062000900565b620003de565b6040516200011f949392919062000b64565b60405180910390f35b3480156200013557600080fd5b506200015460048036038101906200014e919062000900565b620004cb565b005b3480156200016357600080fd5b506200018260048036038101906200017c919062000d09565b6200069c565b005b34600160008381526020019081526020016000206002015414620001df576040517f08c379a0000000000000000000000000000000000000000000000000000000008152600401620001d69062000dbf565b60405180910390fd5b60006002811115620001f657620001f562000ae4565b5b6001600083815260200190815260200160002060030160009054906101000a900460ff1660028111156200022f576200022e62000ae4565b5b1462000272576040517f08c379a0000000000000000000000000000000000000000000000000000000008152600401620002699062000e31565b60405180910390fd5b600180600083815260200190815260200160002060030160006101000a81548160ff02191690836002811115620002ae57620002ad62000ae4565b5b02179055507fa4035636e99f06b7651a604c1019fa4e8779fe68ef27eeb74dff2de348f6199b6002546001600084815260200190815260200160002060030160009054906101000a900460ff16600281111562000310576200030f62000ae4565b5b6001600085815260200190815260200160002060000160009054906101000a900473ffffffffffffffffffffffffffffffffffffffff16604051620003589392919062000e53565b60405180910390a150565b60008060009054906101000a900473ffffffffffffffffffffffffffffffffffffffff1673ffffffffffffffffffffffffffffffffffffffff163373ffffffffffffffffffffffffffffffffffffffff1614905090565b60008054906101000a900473ffffffffffffffffffffffffffffffffffffffff1681565b60016020528060005260406000206000915090508060000160009054906101000a900473ffffffffffffffffffffffffffffffffffffffff1690806001018054620004299062000ebf565b80601f0160208091040260200160405190810160405280929190818152602001828054620004579062000ebf565b8015620004a85780601f106200047c57610100808354040283529160200191620004a8565b820191906000526020600020905b8154815290600101906020018083116200048a57829003601f168201915b5050505050908060020154908060030160009054906101000a900460ff16905084565b620004d562000363565b62000517576040517f08c379a00000000000000000000000000000000000000000000000000000000081526004016200050e9062000f44565b60405180910390fd5b600160028111156200052e576200052d62000ae4565b5b6001600083815260200190815260200160002060030160009054906101000a900460ff16600281111562000567576200056662000ae4565b5b14620005aa576040517f08c379a0000000000000000000000000000000000000000000000000000000008152600401620005a19062000fb6565b60405180910390fd5b60026001600083815260200190815260200160002060030160006101000a81548160ff02191690836002811115620005e757620005e662000ae4565b5b02179055507fa4035636e99f06b7651a604c1019fa4e8779fe68ef27eeb74dff2de348f6199b6002546001600084815260200190815260200160002060030160009054906101000a900460ff16600281111562000649576200064862000ae4565b5b6001600085815260200190815260200160002060000160009054906101000a900473ffffffffffffffffffffffffffffffffffffffff16604051620006919392919062000e53565b60405180910390a150565b620006a662000363565b620006e8576040517f08c379a0000000000000000000000000000000000000000000000000000000008152600401620006df9062000f44565b60405180910390fd5b60003060025483604051620006fd90620008a3565b6200070b9392919062001011565b604051809103906000f08015801562000728573d6000803e3d6000fd5b5090508060016000600254815260200190815260200160002060000160006101000a81548173ffffffffffffffffffffffffffffffffffffffff021916908373ffffffffffffffffffffffffffffffffffffffff160217905550826001600060025481526020019081526020016000206001019081620007a9919062001216565b508160016000600254815260200190815260200160002060020181905550600060016000600254815260200190815260200160002060030160006101000a81548160ff0219169083600281111562000806576200080562000ae4565b5b02179055507fa4035636e99f06b7651a604c1019fa4e8779fe68ef27eeb74dff2de348f6199b60025460016000600254815260200190815260200160002060030160009054906101000a900460ff1660028111156200086a576200086962000ae4565b5b836040516200087c9392919062000e53565b60405180910390a16002600081548092919062000899906200132c565b9190505550505050565b61073e806200137a83390190565b6000604051905090565b600080fd5b600080fd5b6000819050919050565b620008da81620008c5565b8114620008e657600080fd5b50565b600081359050620008fa81620008cf565b92915050565b600060208284031215620009195762000918620008bb565b5b60006200092984828501620008e9565b91505092915050565b60008115159050919050565b620009498162000932565b82525050565b60006020820190506200096660008301846200093e565b92915050565b600073ffffffffffffffffffffffffffffffffffffffff82169050919050565b600062000999826200096c565b9050919050565b620009ab816200098c565b82525050565b6000602082019050620009c86000830184620009a0565b92915050565b6000819050919050565b6000620009f9620009f3620009ed846200096c565b620009ce565b6200096c565b9050919050565b600062000a0d82620009d8565b9050919050565b600062000a218262000a00565b9050919050565b62000a338162000a14565b82525050565b600081519050919050565b600082825260208201905092915050565b60005b8381101562000a7557808201518184015260208101905062000a58565b60008484015250505050565b6000601f19601f8301169050919050565b600062000a9f8262000a39565b62000aab818562000a44565b935062000abd81856020860162000a55565b62000ac88162000a81565b840191505092915050565b62000ade81620008c5565b82525050565b7f4e487b7100000000000000000000000000000000000000000000000000000000600052602160045260246000fd5b6003811062000b275762000b2662000ae4565b5b50565b600081905062000b3a8262000b13565b919050565b600062000b4c8262000b2a565b9050919050565b62000b5e8162000b3f565b82525050565b600060808201905062000b7b600083018762000a28565b818103602083015262000b8f818662000a92565b905062000ba0604083018562000ad3565b62000baf606083018462000b53565b95945050505050565b600080fd5b600080fd5b7f4e487b7100000000000000000000000000000000000000000000000000000000600052604160045260246000fd5b62000bfc8262000a81565b810181811067ffffffffffffffff8211171562000c1e5762000c1d62000bc2565b5b80604052505050565b600062000c33620008b1565b905062000c41828262000bf1565b919050565b600067ffffffffffffffff82111562000c645762000c6362000bc2565b5b62000c6f8262000a81565b9050602081019050919050565b82818337600083830152505050565b600062000ca262000c9c8462000c46565b62000c27565b90508281526020810184848401111562000cc15762000cc062000bbd565b5b62000cce84828562000c7c565b509392505050565b600082601f83011262000cee5762000ced62000bb8565b5b813562000d0084826020860162000c8b565b91505092915050565b6000806040838503121562000d235762000d22620008bb565b5b600083013567ffffffffffffffff81111562000d445762000d43620008c0565b5b62000d528582860162000cd6565b925050602062000d6585828601620008e9565b9150509250929050565b7f4e6f207061727469616c207061796d656e742061636365707465640000000000600082015250565b600062000da7601b8362000a44565b915062000db48262000d6f565b602082019050919050565b6000602082019050818103600083015262000dda8162000d98565b9050919050565b7f4974656d20497320696e2074686520737570706c7920636861696e0000000000600082015250565b600062000e19601b8362000a44565b915062000e268262000de1565b602082019050919050565b6000602082019050818103600083015262000e4c8162000e0a565b9050919050565b600060608201905062000e6a600083018662000ad3565b62000e79602083018562000ad3565b62000e886040830184620009a0565b949350505050565b7f4e487b7100000000000000000000000000000000000000000000000000000000600052602260045260246000fd5b6000600282049050600182168062000ed857607f821691505b60208210810362000eee5762000eed62000e90565b5b50919050565b7f63616c6c6572206973206e6f7420746865206f776e6572000000000000000000600082015250565b600062000f2c60178362000a44565b915062000f398262000ef4565b602082019050919050565b6000602082019050818103600083015262000f5f8162000f1d565b9050919050565b7f5061796d656e74206973206e6f74207472696767657265642079657400000000600082015250565b600062000f9e601c8362000a44565b915062000fab8262000f66565b602082019050919050565b6000602082019050818103600083015262000fd18162000f8f565b9050919050565b600062000fe582620009d8565b9050919050565b600062000ff98262000fd8565b9050919050565b6200100b8162000fec565b82525050565b600060608201905062001028600083018662001000565b62001037602083018562000ad3565b62001046604083018462000ad3565b949350505050565b60008190508160005260206000209050919050565b60006020601f8301049050919050565b600082821b905092915050565b600060088302620010b27fffffffffffffffffffffffffffffffffffffffffffffffffffffffffffffffff8262001073565b620010be868362001073565b95508019841693508086168417925050509392505050565b6000620010f7620010f1620010eb84620008c5565b620009ce565b620008c5565b9050919050565b6000819050919050565b6200111383620010d6565b6200112b6200112282620010fe565b84845462001080565b825550505050565b600090565b6200114262001133565b6200114f81848462001108565b505050565b5b8181101562001177576200116b60008262001138565b60018101905062001155565b5050565b601f821115620011c65762001190816200104e565b6200119b8462001063565b81016020851015620011ab578190505b620011c3620011ba8562001063565b83018262001154565b50505b505050565b600082821c905092915050565b6000620011eb60001984600802620011cb565b1980831691505092915050565b6000620012068383620011d8565b9150826002028217905092915050565b620012218262000a39565b67ffffffffffffffff8111156200123d576200123c62000bc2565b5b62001249825462000ebf565b620012568282856200117b565b600060209050601f8311600181146200128e576000841562001279578287015190505b620012858582620011f8565b865550620012f5565b601f1984166200129e866200104e565b60005b82811015620012c857848901518255600182019150602085019450602081019050620012a1565b86831015620012e85784890151620012e4601f891682620011d8565b8355505b6001600288020188555050505b505050505050565b7f4e487b7100000000000000000000000000000000000000000000000000000000600052601160045260246000fd5b60006200133982620008c5565b91507fffffffffffffffffffffffffffffffffffffffffffffffffffffffffffffffff82036200136e576200136d620012fd565b5b60018201905091905056fe608060405234801561001057600080fd5b5060405161073e38038061073e83398181016040528101906100329190610134565b82600360006101000a81548173ffffffffffffffffffffffffffffffffffffffff021916908373ffffffffffffffffffffffffffffffffffffffff1602179055508160008190555080600181905550505050610187565b600080fd5b600073ffffffffffffffffffffffffffffffffffffffff82169050919050565b60006100b98261008e565b9050919050565b60006100cb826100ae565b9050919050565b6100db816100c0565b81146100e657600080fd5b50565b6000815190506100f8816100d2565b92915050565b6000819050919050565b610111816100fe565b811461011c57600080fd5b50565b60008151905061012e81610108565b92915050565b60008060006060848603121561014d5761014c610089565b5b600061015b868287016100e9565b935050602061016c8682870161011f565b925050604061017d8682870161011f565b9150509250925092565b6105a8806101966000396000f3fe6080604052600436106100385760003560e01c80632986c0e5146102455780633efd41681461027057806389794d001461029b57610240565b3661024057600060025414610082576040517f08c379a000000000000000000000000000000000000000000000000000000000815260040161007990610335565b60405180910390fd5b34600154146100c6576040517f08c379a00000000000000000000000000000000000000000000000000000000081526004016100bd906103a1565b60405180910390fd5b34600260008282546100d891906103fa565b925050819055506000600360009054906101000a900473ffffffffffffffffffffffffffffffffffffffff1673ffffffffffffffffffffffffffffffffffffffff163460005460405160240161012e919061043d565b6040516020818303038152906040527f800fb83f000000000000000000000000000000000000000000000000000000007bffffffffffffffffffffffffffffffffffffffffffffffffffffffff19166020820180517bffffffffffffffffffffffffffffffffffffffffffffffffffffffff83818316178352505050506040516101b891906104c9565b60006040518083038185875af1925050503d80600081146101f5576040519150601f19603f3d011682016040523d82523d6000602084013e6101fa565b606091505b505090508061023e576040517f08c379a000000000000000000000000000000000000000000000000000000000815260040161023590610552565b60405180910390fd5b005b600080fd5b34801561025157600080fd5b5061025a6102c6565b604051610267919061043d565b60405180910390f35b34801561027c57600080fd5b506102856102cc565b604051610292919061043d565b60405180910390f35b3480156102a757600080fd5b506102b06102d2565b6040516102bd919061043d565b60405180910390f35b60005481565b60015481565b60025481565b600082825260208201905092915050565b7f6974657320697320616c72656164792070616964000000000000000000000000600082015250565b600061031f6014836102d8565b915061032a826102e9565b602082019050919050565b6000602082019050818103600083015261034e81610312565b9050919050565b7f5061792045786163742050726963650000000000000000000000000000000000600082015250565b600061038b600f836102d8565b915061039682610355565b602082019050919050565b600060208201905081810360008301526103ba8161037e565b9050919050565b6000819050919050565b7f4e487b7100000000000000000000000000000000000000000000000000000000600052601160045260246000fd5b6000610405826103c1565b9150610410836103c1565b9250828201905080821115610428576104276103cb565b5b92915050565b610437816103c1565b82525050565b6000602082019050610452600083018461042e565b92915050565b600081519050919050565b600081905092915050565b60005b8381101561048c578082015181840152602081019050610471565b60008484015250505050565b60006104a382610458565b6104ad8185610463565b93506104bd81856020860161046e565b80840191505092915050565b60006104d58284610498565b915081905092915050565b7f5472616e73616374696f6e207761736e2774207375636365737366756c6c206360008201527f616e63656c6c696e670000000000000000000000000000000000000000000000602082015250565b600061053c6029836102d8565b9150610547826104e0565b604082019050919050565b6000602082019050818103600083015261056b8161052f565b905091905056fea2646970667358221220fb2b8efbab4ec61afc643c2d5c24458fdef2617b012fa75a3bb95b830837865964736f6c63430008130033a2646970667358221220c3c7813ac6e28e42e743989bb97cf7c64d3b39d952cc8a91c6e9713e89dec16d64736f6c63430008130033",
  "immutableReferences": {},
  "source": "//SPDX-License-Identifier: MIT\n\npragma solidity 0.8.19;\n\nimport \"./Item12.sol\";\n// import \"./Ownable.sol\";\n\n// contract Ownable {\n\n//     address public _owner;\n//     constructor (){ \n//         _owner = msg.sender;\n//     }\n//     /**\n//     * @dev Throws if called by any account other than the owner. */\n//     modifier onlyOwner() {\n//         require(isOwner(), \"Ownable: caller is not the owner\"); _;\n//     }\n//     /**\n//     * @dev Returns true if the caller is the current owner. */\n//     function isOwner() public view returns (bool) { \n//         return (msg.sender == _owner);\n\n//     }\n// }\n\ncontract ItemManager {\n    address public _owner;\n    constructor(){\n        _owner = msg.sender;\n    }\n    modifier onlyOwner() {\n        require(isOwner(),\"caller is not the owner\");\n        _;\n    }\n    function isOwner() public view returns(bool) {\n        return (msg.sender == _owner);\n    }\n    enum SupplyChainState{created, paid, deleivered}\n\n    struct S_Item {\n        Item item;\n        string _identifier;\n        uint _ItemPrice;\n        ItemManager.SupplyChainState _state;\n    }\n\n    event SupplyChainStep(uint _itemIndex,uint _Step,address _itemAddress);\n\n    mapping(uint => S_Item) public items;\n    uint itemIndex;\n\n    function CreateItem(string memory _identifier,uint _ItemPrice) public onlyOwner {\n        Item item = new Item(this,itemIndex,_ItemPrice);\n        items[itemIndex].item = item;\n        items[itemIndex]._identifier = _identifier;\n        items[itemIndex]._ItemPrice = _ItemPrice;\n        items[itemIndex]._state = SupplyChainState.created;\n        emit SupplyChainStep( itemIndex, uint(items[itemIndex]._state),address(item));\n        itemIndex++;\n    }\n\n    function triggerPayment(uint _itemIndex) public payable {\n        require(items[_itemIndex]._ItemPrice == msg.value,\"No partial payment accepted\");\n        require(items[_itemIndex]._state == SupplyChainState.created,\"Item Is in the supply chain\");\n        items[_itemIndex]._state = SupplyChainState.paid;\n        emit SupplyChainStep(itemIndex,uint(items[_itemIndex]._state),address(items[_itemIndex].item));\n    }\n\n    function triggerDeleivery(uint _itemIndex) public onlyOwner {\n        require(items[_itemIndex]._state == SupplyChainState.paid,\"Payment is not triggered yet\");\n        items[_itemIndex]._state = SupplyChainState.deleivered;\n        emit SupplyChainStep(itemIndex,uint(items[_itemIndex]._state),address(items[_itemIndex].item));\n    }\n}",
  "sourcePath": "/Users/vaibhavkale/Desktop/EventTrigger/contracts/ItemManager.sol",
  "compiler": {
    "name": "solc",
    "version": "0.8.19+commit.7dd6d404.Emscripten.clang"
  },
  "schemaVersion": "3.4.16",
  "updatedAt": "2023-10-24T14:23:36.913Z",
  "networkType": "ethereum",
  "devdoc": {
    "kind": "dev",
    "methods": {},
    "version": 1
  },
  "userdoc": {
    "kind": "user",
    "methods": {},
    "version": 1
  }
}