{
  "contractName": "Item",
  "abi": [
    {
      "inputs": [
        {
          "internalType": "contract ItemManager",
          "name": "_parentContract",
          "type": "address"
        },
        {
          "internalType": "uint256",
          "name": "_index",
          "type": "uint256"
        },
        {
          "internalType": "uint256",
          "name": "_priceInwei",
          "type": "uint256"
        }
      ],
      "stateMutability": "nonpayable",
      "type": "constructor"
    },
    {
      "inputs": [],
      "name": "index",
      "outputs": [
        {
          "internalType": "uint256",
          "name": "",
          "type": "uint256"
        }
      ],
      "stateMutability": "view",
      "type": "function"
    },
    {
      "inputs": [],
      "name": "priceInwei",
      "outputs": [
        {
          "internalType": "uint256",
          "name": "",
          "type": "uint256"
        }
      ],
      "stateMutability": "view",
      "type": "function"
    },
    {
      "inputs": [],
      "name": "pricePaid",
      "outputs": [
        {
          "internalType": "uint256",
          "name": "",
          "type": "uint256"
        }
      ],
      "stateMutability": "view",
      "type": "function"
    },
    {
      "stateMutability": "payable",
      "type": "receive"
    }
  ],
  "bytecode": "0x608060405234801561001057600080fd5b5060405161073e38038061073e83398181016040528101906100329190610134565b82600360006101000a81548173ffffffffffffffffffffffffffffffffffffffff021916908373ffffffffffffffffffffffffffffffffffffffff1602179055508160008190555080600181905550505050610187565b600080fd5b600073ffffffffffffffffffffffffffffffffffffffff82169050919050565b60006100b98261008e565b9050919050565b60006100cb826100ae565b9050919050565b6100db816100c0565b81146100e657600080fd5b50565b6000815190506100f8816100d2565b92915050565b6000819050919050565b610111816100fe565b811461011c57600080fd5b50565b60008151905061012e81610108565b92915050565b60008060006060848603121561014d5761014c610089565b5b600061015b868287016100e9565b935050602061016c8682870161011f565b925050604061017d8682870161011f565b9150509250925092565b6105a8806101966000396000f3fe6080604052600436106100385760003560e01c80632986c0e5146102455780633efd41681461027057806389794d001461029b57610240565b3661024057600060025414610082576040517f08c379a000000000000000000000000000000000000000000000000000000000815260040161007990610335565b60405180910390fd5b34600154146100c6576040517f08c379a00000000000000000000000000000000000000000000000000000000081526004016100bd906103a1565b60405180910390fd5b34600260008282546100d891906103fa565b925050819055506000600360009054906101000a900473ffffffffffffffffffffffffffffffffffffffff1673ffffffffffffffffffffffffffffffffffffffff163460005460405160240161012e919061043d565b6040516020818303038152906040527f800fb83f000000000000000000000000000000000000000000000000000000007bffffffffffffffffffffffffffffffffffffffffffffffffffffffff19166020820180517bffffffffffffffffffffffffffffffffffffffffffffffffffffffff83818316178352505050506040516101b891906104c9565b60006040518083038185875af1925050503d80600081146101f5576040519150601f19603f3d011682016040523d82523d6000602084013e6101fa565b606091505b505090508061023e576040517f08c379a000000000000000000000000000000000000000000000000000000000815260040161023590610552565b60405180910390fd5b005b600080fd5b34801561025157600080fd5b5061025a6102c6565b604051610267919061043d565b60405180910390f35b34801561027c57600080fd5b506102856102cc565b604051610292919061043d565b60405180910390f35b3480156102a757600080fd5b506102b06102d2565b6040516102bd919061043d565b60405180910390f35b60005481565b60015481565b60025481565b600082825260208201905092915050565b7f6974657320697320616c72656164792070616964000000000000000000000000600082015250565b600061031f6014836102d8565b915061032a826102e9565b602082019050919050565b6000602082019050818103600083015261034e81610312565b9050919050565b7f5061792045786163742050726963650000000000000000000000000000000000600082015250565b600061038b600f836102d8565b915061039682610355565b602082019050919050565b600060208201905081810360008301526103ba8161037e565b9050919050565b6000819050919050565b7f4e487b7100000000000000000000000000000000000000000000000000000000600052601160045260246000fd5b6000610405826103c1565b9150610410836103c1565b9250828201905080821115610428576104276103cb565b5b92915050565b610437816103c1565b82525050565b6000602082019050610452600083018461042e565b92915050565b600081519050919050565b600081905092915050565b60005b8381101561048c578082015181840152602081019050610471565b60008484015250505050565b60006104a382610458565b6104ad8185610463565b93506104bd81856020860161046e565b80840191505092915050565b60006104d58284610498565b915081905092915050565b7f5472616e73616374696f6e207761736e2774207375636365737366756c6c206360008201527f616e63656c6c696e670000000000000000000000000000000000000000000000602082015250565b600061053c6029836102d8565b9150610547826104e0565b604082019050919050565b6000602082019050818103600083015261056b8161052f565b905091905056fea2646970667358221220fb2b8efbab4ec61afc643c2d5c24458fdef2617b012fa75a3bb95b830837865964736f6c63430008130033",
  "immutableReferences": {},
  "source": "//SPDX-License-Identifier: MIT\n\npragma solidity 0.8.19;\n\nimport \"./ItemManager.sol\";\ncontract Item {\n    uint public index;\n    uint public priceInwei;\n    uint public pricePaid;\n\n    ItemManager parentContract;\n\n    constructor(ItemManager _parentContract,uint _index,uint _priceInwei) {\n        parentContract = _parentContract;\n        index = _index;\n        priceInwei = _priceInwei;\n    }\n    receive() external payable {\n        // instead of using .transfer here we will use .call() on function as to it is a low level function consuming l\n        // less gas. as compared to transfer function.\n        require(pricePaid == 0,\"ites is already paid\");\n        require(priceInwei == msg.value,\"Pay Exact Price\");\n        pricePaid += msg.value;\n        (bool success, ) = address(parentContract).call{value: msg.value}(abi.encodeWithSignature(\"triggerPayment(uint256)\",index));\n        require(success,\"Transaction wasn't successfull cancelling\");\n    }\n}",
  "sourcePath": "/Users/vaibhavkale/Desktop/EventTrigger/contracts/Item12.sol",
  "compiler": {
    "name": "solc",
    "version": "0.8.19+commit.7dd6d404.Emscripten.clang"
  },
  "schemaVersion": "3.4.16",
  "updatedAt": "2023-10-24T14:23:35.573Z",
  "devdoc": {
    "kind": "dev",
    "methods": {},
    "version": 1
  },
  "userdoc": {
    "kind": "user",
    "methods": {},
    "version": 1
  }
}